:020000040800F2
:100000000010002001320008A1090008A30900081F
:1000100000000000000000000000000000000000E0
:10002000000000000000000000000000A50900081A
:100030000000000000000000A7090008A90900084E
:10004000513200080000000051320008513200080F
:100050005132000851320008513200085132000874
:100060000000000051320008B1090008C909000869
:1000700051320008513200085132000800000000DF
:10008000513200080000000000000000513200085A
:1000900000000000513200085132000851320008BF
:1000A00000000000E109000800000000F10900085C
:1000B0000000000000000000000000000000000040
:1000C00010B5064C2378002B07D1054B002B02D02E
:1000D000044800E000BF0123237010BD7000002021
:1000E00000000000A03B0008044B10B5002B03D01B
:1000F0000349044800E000BF10BDC04600000000F6
:1001000074000020A03B00080023C25C0133002AD9
:10011000FBD1581E7047000002B4714649084900DF
:10012000095649008E4402BC7047C04602B471466D
:1001300049084900095C49008E4402BC7047C0462A
:1001400003B47146490840004900095E49008E44E5
:1001500003BC7047002243088B4274D303098B42CF
:100160005FD3030A8B4244D3030B8B4228D3030C87
:100170008B420DD3FF22090212BA030C8B4202D329
:100180001212090265D0030B8B4219D300E0090A51
:10019000C30B8B4201D3CB03C01A5241830B8B425A
:1001A00001D38B03C01A5241430B8B4201D34B0343
:1001B000C01A5241030B8B4201D30B03C01A5241A8
:1001C000C30A8B4201D3CB02C01A5241830A8B422D
:1001D00001D38B02C01A5241430A8B4201D34B0216
:1001E000C01A5241030A8B4201D30B02C01A52417A
:1001F000CDD2C3098B4201D3CB01C01A524183092E
:100200008B4201D38B01C01A524143098B4201D367
:100210004B01C01A524103098B4201D30B01C01A92
:100220005241C3088B4201D3CB00C01A524183080C
:100230008B4201D38B00C01A524143088B4201D339
:100240004B00C01A5241411A00D201465241104699
:100250007047FFE701B5002000F006F802BDC04678
:100260000029F7D076E770477047C046F0B5C6461C
:1002700043025B0A4E0245004F00DA00C40F9C4661
:10028000700A904600B52D0E3F0EC90FB6098C427C
:100290004BD0EA1B002A36DD002F61D0FF2D00D1A4
:1002A000ADE08023DB041E431B2A00DCD3E00120E9
:1002B0004346181A430100D48CE0800187093800B6
:1002C00000F0CCFA05388740854200DCB6E02D1AF4
:1002D000B3483840430704D00F230340042B00D019
:1002E0000430430100D478E06A1CFE2D65D0800103
:1002F000430A9C46D2B26346D0051843E407204324
:1003000080BCB846F0BD002A35D07A1B002D00D045
:10031000AFE04346002B00D1A7E0531E012A00D1D5
:100320002FE1FF2A69D01A00AAE0E91B002970DD3D
:10033000002F37D0FF2D62D08023DB041E431B2902
:1003400000DCB0E001204044430143D50135FF2DDE
:1003500033D00123934A0340400810401843B9E7C3
:10036000002E00D183E0511E012A00D1D8E0FF2ADF
:1003700045D00A0098E7FE276A1C174200D086E0A5
:10038000002D00D0B7E04346002B00D1F3E000225F
:10039000002EB0D0981B430100D4FAE043460C0075
:1003A000F01A97E7002E00D1C8E04A1E012900D1BB
:1003B000AEE0FF2923D01100C1E70023FF229C46B5
:1003C00099E7FE216A1C114277D0FF2AF5D015006B
:1003D00046447008430700D07EE7C308FF2D0ED0C7
:1003E0005B025B0A9C46EAB285E7002E07D08022BA
:1003F000D203134203D0104201D10C000300002BA2
:10040000DBD08020C00318434002430A9C46FF22F1
:1004100071E70029D5D07A1B002D60D14346002B0F
:1004200024D0531E012A73D0FF2AE7D01A001B2ABA
:1004300000DC85E001203D00801985E720233A009B
:10044000451B38000135EA405D1BA840431E98411A
:10045000002510433EE7202330009B1A31009840CE
:10046000D140431E9841084322E70C0003001500C9
:10047000B4E7FF2FC1D080234046DB0418438046F9
:100480001B2A51DD01200C003D00301A12E74346C3
:100490009F1B7B012BD4002F00D010E700230024EA
:1004A00000229C4627E7202332003000CA40591A18
:1004B0008840431E9841104345E7002D4AD14346EA
:1004C000002B63D00022002E00D114E730004044FE
:1004D000430100D47EE7324B013518407AE7FF2F05
:1004E0008CD080234146DB04194388469FE743466E
:1004F0000C00F71AE3E64246002A00D075E7002E0A
:1005000000D07AE78023DB0300249C46FF22F2E63A
:10051000300040440125430100D45BE7022518E781
:1005200043460125981BC5E6202344464046D44057
:100530009A1A9040431E98412043A4E70D004DE7CE
:10054000202341464046D1409A1A9040431E98418C
:10055000084370E74246002A00D14FE7002E00D141
:100560004DE78022D203134200D148E7104200D069
:1005700045E7030043E7002E90D00C00844600229C
:10058000B9E643460C00F01A013593E68446002292
:10059000B1E6002800D01DE7002300249C46AAE60F
:1005A000FFFFFFFBFFFFFF7DF0B54F464646D646F7
:1005B0004502C0B547000C1C6D0A3F0EC60F002F48
:1005C00000D170E0FF2F00D175E0EB008025ED0435
:1005D0001D43002399469A467F3F6002430A98468E
:1005E00063001B0EE40F002B4ED0FF2B46D042467B
:1005F000D0008022D2040243904600227F3B31008B
:10060000FF1A4B466140C9B213430F2B00D9B5E026
:100610006E489B00C3589F460023984626004546D7
:1006200092465346022B00D189E0032B00D19EE075
:10063000012B18D03B007F33002B69DD6A0704D003
:100640000F222A40042A00D004352A0103D5604B2A
:100650001D403B008033FE2B00DD70E0AD016D0AD4
:10066000D8B202E00E0000200025C0052843F6079E
:100670003043E0BCBA46B146A846F0BD4346002B25
:100680003FD10222FF3F03E04346002B2DD1012240
:1006900031004B466140C9B213430F2B34D84D484B
:1006A0009B00C3589F46002D13D104239946033B5A
:1006B00000279A4691E7002D05D108239946063B6D
:1006C000FF279A4689E70C239946093BFF279A465C
:1006D00083E7280000F0C2F87627431F9D400023DF
:1006E0007F4299469A463F1A77E7404600F0B6F8AF
:1006F0004246431F9A4076235B4290461B1A0022D3
:100700007DE7FF2303227AE70E00FF200025ACE7F8
:100710000120C01A1B28A6DC9E372A00BD40C2401B
:100720006B1E9D4115436B0704D00F232B40042BF8
:1007300000D004356B0144D50120002595E7FF204A
:10074000002592E780250026FF20ED038DE700239A
:1007500098468020C003054209D04346034206D193
:10076000454605436D022600FF206D0A7DE7802087
:10077000C00305436D02FF206D0A76E742466B0118
:100780005001834219D21B220025013F01261C0083
:100790006D005B00002C01DB984201D81B1A354329
:1007A000013A002AF3D15A1E93411D433B007F3387
:1007B0000E00002B00DD41E7AAE71A2201251B1AD3
:1007C000E4E7AD0100206D0A4FE7C046B83B0008E2
:1007D000FFFFFFF7F83B000870B5051E0ED000F0D4
:1007E0003DF89E2304001B1A962B0CDC082801DD23
:1007F000083CA5406D026D0AD8B201E0002000253A
:10080000C005284370BD992B09DD020029001B3269
:1008100091404A1E91410522121AD5400D43052CE4
:1008200012DC29000C4E31406A0709D00F20284005
:10083000042805D004314A0102D59F2331401B1BF7
:1008400089014D0AD8B2DBE7621F95402900024EAC
:1008500031406A07F4D0E9E7FFFFFFFB1C210123C9
:100860001B04984201D3000C10391B0A984201D393
:10087000000A08391B09984201D30009043902A271
:10088000105C40187047C0460403020201010101D8
:10089000000000000000000070B5102694B02C226B
:1008A000002109A802F003FD32000021684602F091
:1008B000FEFC3200002104A802F0F9FCA02302246F
:1008C00001259B0308A808940B950C96109412938D
:1008D00000F0E8FD002801D072B6FEE70723029081
:1008E0000390290068460093019401F00DF8002858
:1008F00001D072B6FEE721230690079004A8049366
:1009000001F096F8002801D072B6FEE714B070BD71
:1009100010B592B001F036F9FFF7BEFF02F00AF809
:1009200002F04EF802F0CEF802F05EF902F066F83E
:1009300001A802F02FFB040006A802F0A9FB24186E
:10094000684602F03BFBE4B22418E4B21048002CE5
:1009500000D01048FA2402F097FAA40006A802F08A
:10096000E3FB06A802F0FFFB06A802F01BFC6B46A7
:100970002A229B5E6A462821525E69462620095E2D
:10098000054802F081FA200002F036FCE6E7C04696
:10099000523C0008383C00086F3C000872B6FEE785
:1009A000FEE7FEE77047704710B501F0FBF810BD99
:1009B00010B5034801F027FB024801F024FB10BDED
:1009C000DC0000202001002010B5034801F01BFBD3
:1009D000024801F018FB10BD0C020020C8010020E5
:1009E00010B5024800F0C4FC10BDC04664010020F0
:1009F00010B5024801F096FC10BDC0465002002020
:100A000001200A4B82B099690143996180219A695A
:100A1000490502400092009ADA690A43DA61DB690B
:100A20000B400193019B02B07047C046001002408A
:100A3000F0B51700002285B01D0002ABDA7004008B
:100A40000E0001F0BBF8ED192D1A01F0B7F82322C2
:100A50002368009001932A4B1B6853431B0D6B4383
:100A60000393216802ABDA1C8B68180030403342D4
:100A70003BD0C023DB009E4204D1019B1B7BDBB239
:100A8000137013787B1CEFD001F098F8009BC01A0C
:100A9000A8422CD3E02123685A688A435A608222F4
:100AA0006168520091420CD18021A26809028A42F9
:100AB00003D08021C9008A4203D140211A688A43A9
:100AC0001A608021A26A89018A4206D119680D48FC
:100AD0000140196019680A431A60230001225D333E
:100AE0001A70002303205C34237005B0F0BD039B13
:100AF0005A1E93415B421D40039B013BB0E7C04639
:100B000008000020FFDFFFFFF0B50E0085B01500E4
:100B1000040001F053F8AD192D1A01F04FF88027A9
:100B2000254B01901B685B011B0D6B4303932268EF
:100B30009368180038403B4232D0731CF8D001F063
:100B40003DF8019BC01AA8422CD3E02123685A68C3
:100B50008A435A6082226168520091420CD18021FE
:100B6000A26809028A4203D08021C9008A4203D1C7
:100B700040211A688A431A608021A26A89018A4248
:100B800006D119680D480140196019680A431A60B6
:100B9000230001225D331A70002303205C3423708C
:100BA00005B0F0BD039B5A1E93415B421D40039B61
:100BB000013B0393BBE7C04608000020FFDFFFFFB7
:100BC000F8B582231700426804000E005B009A42C9
:100BD0000DD1802283681202934203D08022D2007A
:100BE000934204D14021226813688B4313603A007A
:100BF00031002000FFF788FF051E05D02023226E5C
:100C000003251343236616E0822362685B009A4241
:100C100011D18022A3681202934203D08022D20015
:100C2000934208D1C0213B0032002000C900FFF7E9
:100C3000FFFE0028E2D12800F8BD70B513000D00BA
:100C400016000A00C02149010400FFF7F1FE002848
:100C500005D02023226E0320134323660FE03200C9
:100C600029002000FFF750FF0028F2D1C0213300F7
:100C70002A002000C900FFF7DBFE0028E9D170BD83
:100C8000F8B504000120002C67D0636A002B65D101
:100C9000822261685200914200D0E3610023250066
:100CA000A3625D352B78DAB2002B05D123005C33CB
:100CB00020001A7001F02CFF022340212B702268C3
:100CC000E56813688B43E0211360C90000238D425F
:100CD00048D8802040018D4200D0A36282236668FC
:100CE0005B0033408426A76836023E403343022629
:100CF0002769A1693E40334301266769B4463740FE
:100D00003B438027BF000F403B433827E669090C6F
:100D100037403B438027266A37403B438027A66AFB
:100D2000BF0137403B43136010230827666A3340F6
:100D3000666B37403B43F0273F013D401D43042392
:100D40001940294308435060D369084900200B40EB
:100D5000D361634620665D342370F8BD00232361B0
:100D600063619BE7F02118000901B4E7FFF7FFFF7B
:100D7000F8B506005C36337804000225012B5BD001
:100D80000123337003005D331878C5B2012800D009
:100D90006FE000294ED0002A4CD00230187000239A
:100DA000A2872366E287A21D23642365E364A1630F
:100DB00002329387D3878023A06822681B0298425F
:100DC00008D1402013688343136080231068DB013F
:100DD00003431360606D284B5768C362274B8362DF
:100DE000274B036300234363264B1F409C46E023AD
:100DF0005760E768DB009F420ED880234769DB001D
:100E00009F4209D1E38FDB0718D4674653683B4004
:100E10005360E38F5B08E387E38F0C329BB201F0F2
:100E200073F8002813D01023226E13432366012386
:100E30005D342370002333702800F8BD8023576889
:100E4000DB013B435360E38F5B080133E3E7402260
:100E500023681968114202D119680A431A602022D6
:100E6000596800250A435A60022259680A435A60A9
:100E7000E0E70225DEE7C046E9110008311200086C
:100E80000D120008FFBFFFFFF7B5060001925C36A8
:100E9000357804000220012D19D02500013830706A
:100EA0005D352878C7B201280CD0822040008446E6
:100EB00062680338FF38624507D1A268002A04D16E
:100EC000042F02D1002903D1012000233370FEBD7D
:100ED000019A002AF8D0002BF6D02878042801D0F7
:100EE000052028700020019AA163A11D20662264BC
:100EF000A387E38702318B87CB87E021E268E06438
:100F000020659446A06DC9008A4204D880214269B8
:100F1000C9008A42D8D02168484A4F6817404F60BC
:100F2000E027FF00BC451FD94B68454F3B404B6055
:100F30002B78042B54D1434BC362434B8362434B06
:100F4000019A03630023436323000833DB8F0C31D2
:100F50009BB200F0D9FF031E46D010230120226E61
:100F6000134323662870B0E780274A687F01174340
:100F700080224F60676DD2007F69974208D1DB07FE
:100F80001CD44B68324F3B404B60E38F5B08E387D8
:100F900080234269DB009A42CAD14B68284F3B400C
:100FA0004B6023000833DF8FFA0710D44F68294ABB
:100FB00017404F60DF8F7F08DF87B9E780234F68D6
:100FC000DB013B434B60E38F5B080133DFE78027A6
:100FD0004A68BF0117434F60DF8F7F080137EBE797
:100FE0001D4BC3621D4BA9E701252268606D516846
:100FF00029435160C362836203634363E38FA16B40
:101000009BB20C3200F080FF002806D01023226E25
:10101000134323665D34257056E740222368196820
:10102000114202D119680A431A60202259680A4302
:101030005A60022259680A435A6046E7FF9FFFFF41
:10104000FFEFFFFFF51100089F1200080D120008C6
:10105000FFBFFFFFFFDFFFFF011200080F130008B3
:10106000F7B504008068130000280FD1822265685C
:10107000520095420AD1220004305D3210700A00FD
:101080002000FFF701FF06003000FEBD22005C32A9
:1010900015780226012DF7D00125157055780132FB
:1010A000EEB2012D00D08CE000294FD0002B4DD0A6
:1010B00003352700157000220837A51D226621641C
:1010C000EB87FB8780230197E2642265A287E28792
:1010D0001B02984208D1402023681A6882431A6094
:1010E0001A68394802401A60E023E268A06DDB000C
:1010F0009A4204D880234569DB009D4226D02568AA
:10110000324F6B683B406B60E023DB009A4221D991
:101110006B682F4A13406B602E4B0C35C3622E4B0D
:101120000A0083622D4B2900036300234363019B64
:10113000DB8F9BB200F0E8FE002830D01023226E37
:1011400013432366230001225D331A7000235C34AD
:10115000237099E780236A685B0113436B608023E7
:101160004269DB009A42D7D16B68194A13406B6021
:1011700023000833DA8FD20706D46A683A406A60DF
:10118000DA8F5208DA87C7E76A6894468022674692
:1011900092013A436A60DA8F52080132F2E7402244
:1011A00023681968114202D119680A431A60202283
:1011B000596800260A435A60012259680A435A6056
:1011C000C4E70226C2E7C046FFBFFFFFFFDFFFFF05
:1011D000FFEFFFFFF51100089F1200080D12000835
:1011E000704770477047704710B5406AFFF7FBFFC4
:1011F00010BD704710B5406AFFF7FBFF10BD704788
:1012000010B5406AFFF7FBFF10BD70470321406A2D
:1012100010B5026853688B4353601023026E13436A
:101220000366030001225D331A70FFF7EEFF10BD65
:1012300037B50500446A00F0C1FC2B6820251B6807
:1012400002002B4227D1022023685968A943596024
:1012500059688143596020006421FFF7EEFC0028A3
:1012600002D0236E1D432566A368002B06D101938F
:101270002368DA6801929B680193019B0023E3874E
:10128000230001225D331A70236E002B03D020004F
:10129000FFF7BBFF37BD2000FFF7A2FFFAE770B5ED
:1012A0000500446A00F08AFC020020202B681B68BD
:1012B000034228D12368596881435960A1680029F5
:1012C0001ED105316068FF31884219D10320596869
:1012D0008143596020006421FFF772FC002801D08F
:1012E00020232366230000220833DA875533013296
:1012F0001A70236E002B06D02000FFF786FF70BD0A
:1013000001205968E4E72000FFF76BFFF7E770B5AD
:101310000500446A00F052FC2B6820251B6802007F
:101320002B4221D1216820004B68AB434B606421E4
:10133000FFF783FC002802D0236E1D43256603219E
:10134000226853688B435360220000230832E387EE
:10135000D387230001225D331A70236E002B03D044
:101360002000FFF752FF70BD2000FFF73BFFFAE7B8
:101370000368F0B5040058689A68012591090F00C8
:1013800085B02F40294209D12A4207D086092E4232
:1013900004D0E36C2000984705B0F0BD0125960706
:1013A00004D5C6092E4201D0236DF3E70125560965
:1013B0003143120A2A4029401143EDD04109294204
:1013C000EAD0002F0FD021005D310978032950D0D9
:1013D0000421256E2943216600210091D9680091DE
:1013E00099680091009901210E420BD0256E294386
:1013F0002166002140250291996802911968A9434C
:1014000019600299002A08D00822216E0A43226638
:10141000002203929A680392039A226E002ABBD09C
:10142000E0215A688A435A602200DF395D32117028
:101430000231084225D05A68A06D8A435A600028BC
:1014400009D0124B436300F0BBFD002803D04023BA
:10145000226E13432366606D00289DD00B4B4363BF
:1014600000F0AEFD002897D04023226E1343236680
:1014700092E700220192DA6801929B680193019B36
:101480008AE72000FFF7C1FE86E7C04691140008F6
:10149000406A0023020010B50832D387C387FFF7E4
:1014A000B4FE10BDF0B5040085B0002845D0036837
:1014B000DB072FD423689B0700D581E023681B0737
:1014C00000D5BCE023685B0700D5DFE02368DB06BE
:1014D0001AD562690423B54D012A00D04AE1696B2F
:1014E00002270B436B636B6B1A436A6300F066FB66
:1014F00006006B6B3B4200D135E1F8216A6BA369B2
:101500008A43DB0013436B63236A002B00D059E14D
:1015100000202AE00C21A54D6A680A40042A06D062
:101520006B680B40082B0AD16B68DB0307D52B686F
:101530009B03BFD56368002BBCD1012015E0636815
:10154000012B14D180232A685B0213432B6000F027
:1015500035FB80270600BF022B683B42AAD100F072
:101560002DFB801B6428F7D9032005B0F0BD002BAC
:1015700016D12B688E4A802713402B602B688D4A2A
:10158000BF0213402B6000F019FB06002B683B42A2
:1015900000D18FE700F012FB801B6428F6D9E3E747
:1015A000052B05D180232A68DB0213432B60C9E792
:1015B0002B687F4A13402B602B687E4A1340C5E797
:1015C0000C227A4D6B68134206D06B681340082BCF
:1015D00010D16B68DB030DD42B689B0702D5E36841
:1015E000012BAAD1F8212A6823698A43DB0013431F
:1015F0002B6063E7E2680123002A0FD02A680227E4
:1016000013432B6000F0DAFA06002B683B42E9D165
:1016100000F0D4FA801B0228F7D9A5E72A68022730
:101620009A432A6000F0CAFA06002B683B4200D1B8
:1016300044E700F0C3FA801B0228F6D994E7E26978
:1016400001235A4D002A10D06A6A022713436B62A5
:1016500000F0B4FA06006B6A3B4200D032E700F0BB
:10166000ADFA801B0228F6D97EE76A6A02279A4300
:101670006A6200F0A3FA06006B6A3B4200D121E7E0
:1016800000F09CFA801B0228F6D96DE78022002129
:10169000464D5205EB690091134208D1EB691343A3
:1016A000EB61EB6913400393039B012300938027B5
:1016B000414E7F0033683B4206D0A368012B13D113
:1016C0002A6A13432B6230E033683B43336000F0F7
:1016D00075FA019033683B42EFD100F06FFA019B3D
:1016E000C01A6428F6D93FE70122002B14D12B6AD7
:1016F000022793432B622B6A033293432B6200F041
:101700005DFA06002B6A3B4216D000F057FA2B4BCD
:10171000801B9842F6D927E7052B16D1296A013B91
:101720000B432B622B6A1A432A6200F047FA022706
:1017300006002B6A3B420FD0009B012B00D0C5E670
:10174000EB691F4A1340EB61C0E62B6A9343042206
:101750002B622B6A9343B5E700F030FA174B801BDE
:101760009842E6D900E700F029FA801B022800D849
:10177000BFE6F9E6053203D16A6B9A436A63BCE6B9
:101780006A6B0227134301226B636B6B93436B639A
:1017900000F014FA06006B6B3B4200D1B4E600F097
:1017A0000DFA801B0228F6D9DEE6C0460010024082
:1017B000FFFFFEFFFFFFFBFF0070004088130000EB
:1017C000FFFFFFEF0C21344D6A680A40082A47D01A
:1017D000324A022B32D12B68802713402B6000F055
:1017E000EDF90600BF042B683B4221D10F22EB6AC2
:1017F00080269343E26AB6041343EB62616AA36AEC
:101800006A680B4326490A4013436B6080232A68A9
:101810005B0413432B6000F0D1F904002B683342C2
:1018200000D075E600F0CAF9001B0228F6D99BE645
:1018300000F0C4F9801B0228D5D995E62B688026D4
:1018400013402B6000F0BAF90400B6042B68334251
:1018500000D15DE600F0B2F9001B0228F6D983E65C
:101860001800012B00D180E680216B68606A490274
:10187000EA6A1940814200D05FE60F210A40E16A1E
:101880008A4200D059E6F02292031340A26A9342A2
:1018900000D13DE651E6C04600100240FFFFFFFECA
:1018A000FFFFC2FF70B588B010221249684604AD30
:1018B00001F0F4FC102228000F4901F0EFFC0C228B
:1018C0000E4E73681A40082A11D10F206A46990CEF
:1018D0000140545CF26A0240A95CDB0305D508486C
:1018E000FEF738FC604308B070BD0648FAE70448CC
:1018F000F9E7C046803C0008913C00080010024017
:1019000000127A0000093D00F7B504000E0000281F
:1019100001D10120FEBD0122374D2B6813408B42BF
:101920001CD321688B0722D4CB072FD401232A682C
:101930001A40B24251D82368304D5B0754D4FFF7A8
:10194000B1FF6B682E4A1B061B0FD35CD8402D4B92
:101950001860002000F0F2F80020DBE72B689343CA
:101960000B432B602B6813408B42D2D1D9E7234A1B
:101970004B0704D5E0235068DB0003435360F0209D
:1019800053688343A06803435360CDE71B4F6268ED
:101990003B68012A19D19B03BBD503217B688B438C
:1019A00013437B6000F00AF901900C237A681A4017
:1019B00063689B009A42B9D000F000F9019BC01AFD
:1019C000114B9842F1D90320A4E7022A02D19B01CE
:1019D000E3D49EE79B07E0D49BE72A689A432A60FA
:1019E0002A681A42A7D094E76B68084A1340E26855
:1019F00013436B60A3E7C046002002400010024082
:101A0000A53C00080800002088130000FFF8FFFF35
:101A1000044B054A5B685B055B0FD35C034A1068A7
:101A2000D840704700100240B53C00080800002074
:101A3000F0B50368050085B0DB032AD580220021BC
:101A4000384C5205E3690091134208D1E36913430E
:101A5000E361E36913400393039B01230093802711
:101A6000314E7F0033683B4228D0226AC0231100E8
:101A70009B002E4E19401A4232D1236A1E406B68D9
:101A80001E43009B2662012B03D1E369284A1340C1
:101A9000E3612A68D30706D5032022490B6B8343F1
:101AA000A86803430B630020930617D510211D4A35
:101AB000136B8B43E9680B4313630FE033683B43BD
:101AC000336000F07BF8019033683B42CDD100F0E9
:101AD00075F8019BC01A6428F6D9032005B0F0BD43
:101AE0006A6813408B42C8D08023226A206A1100A2
:101AF0005B0203432362236A0E48314003402362A2
:101B00002162D307B9D500F059F807000222236AF1
:101B10001342B2D100F052F8074BC01B9842F5D9DE
:101B2000DBE7C0460010024000700040FFFCFFFFF2
:101B3000FFFFFFEFFFFFFEFF8813000070B50500F9
:101B4000FA200D4B80001978FEF704FB0B4B0100C7
:101B50001868FEF7FFFA00F0D5FA04000120002C07
:101B600009D1032D07D802382200290000F094FA89
:101B70002000034B1D6070BD000000200800002005
:101B8000040000201023064A10B5116800200B4302
:101B90001360FFF7D3FFFEF733FF002010BDC046F0
:101BA00000200240034A044B11681B785B18136045
:101BB0007047C0468C00002000000020014B1868D0
:101BC0007047C0468C00002070B50400FFF7F6FF98
:101BD0000500631C02D0044B1B78E418FFF7EEFFEE
:101BE000401BA042FAD370BD0000002070B5040075
:101BF0000120002C3FD0250041352B78DAB2002B94
:101C000005D12300403320001A7000F025FF242363
:101C100001212B7023681D481A68A6688A431A6040
:101C200061681B4A0A401A619A6802409A60E26839
:101C3000012A21D180210902314399605A6815494E
:101C400011435960DA6861690240DA602269002054
:101C50000A43A16909020A43DA60216AE2690A4378
:101C60001A60012219680A431A60202360642B70ED
:101C700020634234207070BD842109023143996091
:101C8000022ADBD1802212015A60D7E7FF7FFFFFD3
:101C9000FFFFFFF000800002F0B50400413422781D
:101CA00003000F000220D6B2202A18D11D004035B3
:101CB0002A78012A13D0242222701B68233A19683B
:101CC000074891431960196801400020196019689C
:101CD0003943196019680A431A6026702870F0BDEC
:101CE000FFEFFFFF0200F0B5413214780300E5B2C8
:101CF0000220202C17D11C0040342678012E12D04F
:101D0000223010701B6823381E68074F86431E6000
:101D10001E6809023E403143196019680843186083
:101D2000002015702070F0BDFFF0FFFF0023F0B51C
:101D300087B00A681400DC4001D107B0F0BD01256E
:101D400014009D402C4001942A4200D195E04A683D
:101D50005E0094460322644622400324B440E443D8
:101D60000294541E012C2AD88768029C2740CC6814
:101D7000B4403C43846044680127AC43250064467A
:101D800024093C409C402C434460C568029C25408B
:101D90008C68B4402C43C460022A12D1DC080725A9
:101DA000A4000419276A03940F241D40AD00AC4021
:101DB000A7430C69AC402743039C276201E0032A38
:101DC000E3D10468029DB24025402C001443046016
:101DD000C0246246A40222424FD00125284A9027FF
:101DE0009469FF052C43946192699C082A400592EE
:101DF000059A244AA400A4180F2202351D40AD0004
:101E0000AA40A66896430022B8420CD01E4F013269
:101E1000B84208D01D4F0132B84204D01C4F0132E5
:101E2000B84200D00232AA4067463243A260194A43
:101E3000019C1668019DE4433543FF0301D435003E
:101E40002540674615605668019D3543BF0301D4A0
:101E500035002540674655609668019D3543FF0271
:101E600001D43500254067469560D568019E2E4314
:101E7000BF0201D425402E00D660013359E7C04689
:101E80000010024000000140000400480008004823
:101E9000000C004800040140002A01D08161704715
:101EA0008162FCE770B504000120002C24D00223DD
:101EB000A51CEB772068114B0268A1681A40636883
:101EC0000B43E1680B4321690B4361690B43A16933
:101ED0000B43E1690B4313430360094B1421C01802
:101EE000FEF738F9074B80002064E36300200123EC
:101EF000A063E418EB77E07770BDC0460FC0FFFF2A
:101F0000F8FFFDBF00000240F7B5451C0193EB7FD1
:101F100004000220012B27D001232718EB77FB7F39
:101F200000269C466046DBB2012828D10130F877B4
:101F30002068A6630568266C9D43B3400560E56B89
:101F40006B60019B43606368102B0ED18260C1609F
:101F5000E36A0268002B0BD00E23134303600123B6
:101F60000268134303600020FEBD8160C260EFE79A
:101F70000A2313430422036003689343EEE702201D
:101F8000EE77F1E730B5851CEB7F441C022B05D0C2
:101F90000423836300230120E37730BD0E2103680F
:101FA0001A688A431A600122196891431960016C0A
:101FB000C36B1000884058600020EA77E077ECE7B8
:101FC00070B5841CE37F022B04D004238363033B9E
:101FD000180070BD0E210368056C1A688A431A60E8
:101FE00001221968914319601100A940C36B59601F
:101FF000E27700248318DC77426B1300A242E7D01B
:1020000090472300E4E7F8B504273E00016CC26B5B
:102010008E40156803681C6835420DD03C420BD0D9
:102020001968890602D41968B9431960C36A5660F1
:10203000002B19D0984717E002273E008E4035420A
:1020400013D03C4211D01968890606D40A241968B5
:10205000A14319600121C319D97756600022431C9E
:10206000DA77836A9342E5D1F8BD082637008F40BE
:102070003D42F9D03442F7D00E251C68AC431C60B9
:1020800001231C008C405460821C8363D3770022A0
:10209000C318DA77036BE5E730B5FF2503242A0080
:1020A0000440E400A24089012940D243A140C3B2C8
:1020B00000280ADBC0240B4B80088000C018A40055
:1020C00003591A401143015130BD0F200340083B12
:1020D00005489B089B001B18D86902401143D96131
:1020E000F2E7C04600E100E000ED00E0002805DB7B
:1020F0001F2318401E3B8340014A13607047C046AF
:1021000000E100E08022431E5204012093420DD2E0
:10211000C021074A07485360036A09061B021B0ACD
:102120000B43036200200723906013607047C04692
:1021300010E000E000ED00E030B5EFF31084012284
:1021400082F310880168124D0B682B400B6084F3FA
:102150001088EFF3108482F3108801688B68934332
:102160008B6084F31088036E93420AD1EFF31081E1
:1021700083F31088102402681368A343136081F36B
:1021800010882023C36700230366436630BDC04622
:10219000DFFEFFFFF7B51300826F04000220202A44
:1021A0003AD10138002937D0002B35D08022A068E1
:1021B0005201904206D12269002A03D10132100057
:1021C000114229D1250074352A780220012A23D012
:1021D00001222A7022005032E164002613805380CD
:1021E0002122E06E271DFE67A267B04215D022684B
:1021F00046630192124A8262124AC262124A026322
:10220000019A2832FFF780FEB04206D01023012049
:10221000FB67DB182E70A367FEBD402200202368F9
:102220001A622870EFF31081012383F3108822686B
:102230007F3394682343936081F31088ECE7C046B2
:102240004F2200089B220008A722000870470300C5
:102250009B6970B5406A202B1BD0030000225233CB
:102260001A80EFF31084013282F310888025016810
:102270008B68AB438B6084F31088EFF3108182F39B
:1022800010884023026810680343136081F31088AC
:1022900070BDFFF7DBFFFBE7704710B5406AFFF743
:1022A000FBFF10BD704770B5446A2268A36FE16FF1
:1022B0009268120613D5212B11D12300002252332C
:1022C0001A80EFF31080012383F31088C025226861
:1022D0001368AB43136080F310882023A36723683F
:1022E0009B685B0608D5222906D1230000225A33B9
:1022F00020001A80FFF720FF1023221DD16F20003D
:102300000B43D367FFF7CEFF70BD406A0023020086
:1023100010B55A321380083A1380FFF7C3FF10BD7F
:10232000704700000168F8B5CB699F4D040008684C
:102330008A682B420BD12022134200D17EE010424A
:1023400000D17BE0636E2000002B6DD16DE0012693
:10235000964D32400540154300D16FE0251D3342B4
:1023600005D0C70503D50E62EF6F3E43EE67022628
:10237000334206D0002A04D00E62EF6FB6193E43F6
:10238000EE670426334206D0002A04D00E62EF6FB7
:10239000023E3E43EE670826334207D0202707401F
:1023A0003A4303D00E62EA6F1643EE6780221201B1
:1023B000134206D0460104D50A622022E96F0A437F
:1023C000EA67EA6F002A30D02022134206D010427A
:1023D00004D0636E002B01D0200098472268EB6F79
:1023E0004027966828223E40134020001E4321D0FB
:1023F000FFF7A2FE23689B683B4217D0EFF31081E2
:10240000012383F3108822689368BB43936081F3B0
:102410001088206F002809D0654B4363FFF7D0FD7B
:10242000002802D0206F436B9847F8BD2000FFF7CB
:1024300039FFFAE7FFF736FFEE67F6E7226E012A6B
:1024400000D090E010252B4200D18CE0284200D132
:1024500089E00D628B684021180008400B424CD087
:10246000206F03685B689BB2002BDED026005836D5
:1024700037889F42D9D927005A373B808369202B60
:1024800031D0EFF3108782F310882068494D03683C
:102490002B40036087F31088EFF3108782F31088D6
:1024A000206883689343836087F31088EFF3108775
:1024B00082F31088206883688B43836087F31088D9
:1024C0002023E36700232366EFF3108182F3108853
:1024D000226812351368FF35AB43136081F310880F
:1024E000206FFFF74FFD23005A331B883188C91A2C
:1024F00089B22000FFF714FF97E726005A36338889
:1025000031889BB2002900D18FE72100583109881A
:10251000C91A89B2002900D187E7EFF3108782F347
:1025200010882668244D33682B40336087F3108869
:10253000EFF3108782F310882668B3689343B36083
:1025400087F3108820236066E3672066EFF310802E
:1025500082F31088226832351368FF35AB4313606D
:1025600080F31088C5E78022134203D0104201D0C7
:10257000A36EE8E64022134200D156E7104200D194
:1025800053E7EFF31080012383F3108821680B6871
:1025900093430B6080F310882023A367002320005F
:1025A000A366FFF753FE40E70F0800002001000478
:1025B0000B230008FFFEFFFFDFFEFFFF70B50400E6
:1025C0002569A26801682A436569C3692A430868C6
:1025D000394D1A43284002430A604A683748256A41
:1025E0000240E06802434A60A26988682A43344D89
:1025F000284002438A600321324A126B0A4080213C
:10260000013A0902022A4CD82F48805C8B4224D11F
:10261000082817D8FDF78AFD47160816051616165E
:102620000900FFF73FF940E0284B580063686168F4
:102630005B08C018FDF78EFD254982B2103A0304ED
:102640008A4201D9012033E00F221B03904380B25C
:1026500022685B0F1843D06029E00828F2D8FDF704
:102660005BFD16F11EF11BF1F1F105008020000267
:10267000636861685B081818FDF76CFD80B20200A2
:10268000134B103A9A42DDD82368D8600FE0FFF769
:10269000BFF900280BD0EBE7FFF704F9F9E70B4887
:1026A000E6E78B42F3D1FFF7B3F9031EBDD100205B
:1026B00000236366A36670BDF369FFFFFFCFFFFFD2
:1026C000FFF4FFFF00100240A23C000800127A0055
:1026D000EFFF0000436A30B5DA0706D50168284CE1
:1026E0004A682240846A22434A609A0706D50168F4
:1026F000244C4A682240C46A22434A605A0706D5DD
:102700000168214C4A682240046B22434A601A0740
:1027100006D501681D4C4A682240446B22434A603A
:10272000DA0606D501681A4C8A682240846B224377
:102730008A609A0606D50168164C8A682240C46BE6
:1027400022438A605A0610D50168134D4A68046C0A
:102750002A4022434A6080225203944205D14A68AB
:102760000E4C2240446C22434A601B0606D5026888
:102770000B4953680B40816C0B43536030BDC0461E
:10278000FFFFFDFFFFFFFEFFFFFFFBFFFF7FFFFFE0
:10279000FFEFFFFFFFDFFFFFFFFFEFFFFFFF9FFFE9
:1027A000FFFFF7FFF7B5802704000D001600019327
:1027B0003F012268D3692B405B1B59424B41B34216
:1027C00001D0002028E0089B0133F3D0FFF7F6F991
:1027D000019BC01A089B984201D8002B1DD1EFF332
:1027E0001080012282F3108821681E4D0B682B4057
:1027F0000B6080F31088EFF3108082F3108821685B
:102800008B6893438B6080F310882023A367E36772
:102810000023032074342370FEBD042123681A684A
:102820000A42C6D0DA693A42C3D01F62EFF3108081
:10283000012282F3108821680A4D0B682B400B603F
:1028400080F31088EFF3108082F3108821688B6882
:1028500093438B6080F310882023221DA367E367D6
:10286000D367D5E75FFEFFFF73B500260400031DA5
:10287000DE67FFF7A3F9236805001B681B0716D462
:1028800023681B685B070AD580210F4B0022009349
:1028900020002B00C903FFF785FF002812D1202359
:1028A0000020A367E3672066743420700BE080216A
:1028B000054B32000093890303002000FFF772FFED
:1028C0000028DDD0032076BDFFFFFF0110B5041EF8
:1028D00001D1012010BD836F002B04D1020074329E
:1028E000137000F09FF9242301212268A367136865
:1028F00020008B431360FFF761FE0128E9D0636A73
:10290000002B02D02000FFF7E5FE236807495A6834
:1029100020000A4008215A609A688A439A6001227E
:1029200019680A431A60FFF79FFFD3E7FFF7FFFF1D
:1029300070470000F0B589B01422002103A800F010
:10294000B6FC80201C4B80025969902501435961D7
:1029500080215A69C90202400192019A5A69ED0523
:102960000A435A615B69154E0B402800029301220D
:102970001221029BFFF790FA300001220221FFF79B
:102980008BFA012228001021FFF786FA0124122376
:102990000027280003A90393049405940697FFF7E2
:1029A000C5F90223300003A9039304940594069704
:1029B000FFF7BCF909B0F0BD001002400004004868
:1029C00007B501200C4A5169014351615369002246
:1029D0000340110001930930019BFFF75DFB0A20C2
:1029E000FFF784FB00220B201100FFF755FB0B20A3
:1029F000FFF77CFB07BDC0460010024010B5134B2B
:102A0000134C01222360134B200063600023E2601B
:102A1000A36023616361A361E3612362FFF7E6F8CA
:102A2000002801D0FDF7BAFF00212000FFF734F99C
:102A3000002801D0FDF7B2FF00212000FFF752F976
:102A4000002801D0FDF7AAFF10BDC0460054004089
:102A5000900000200E09002010B5040088B0142258
:102A6000002103A800F023FC144B22689A4222D1D3
:102A70008021134C8902626990200A436261636974
:102A8000C0050B400193019BC023DB00039312237D
:102A90000493113B05930233069303A90133079373
:102AA000FFF744F98021E26989030A43E261E3699F
:102AB0000B400293029B08B010BDC046005400407A
:102AC00000100240E0221048104B10B50360822332
:102AD000D200C26080225B00072143600023920085
:102AE0008261F93AFF3A836003614361C261036224
:102AF00043628362C16203634263FEF7C1F8002848
:102B000001D0FDF74BFF10BD6401002000300140F3
:102B100030B5050089B01422002103A800F0C7FBDE
:102B20002B4B2A689A4250D180202A4B4001996948
:102B30000143996180219A69890202400192019AB8
:102B40005A6990200A435A615B69C0050B400293A1
:102B5000029BE0230393DE3B049303A90133069316
:102B6000FFF7E4F81C4C1D4B80222360002320005B
:102B70006360A360E26023616361A361E361FFF7C7
:102B800091F9002801D0FDF709FF154BAC6565628E
:102B9000144C802223601023636000232000A36074
:102BA000E26023616361A361E361FFF77BF90028C1
:102BB00001D0FDF7F3FE0022192011006C6565625B
:102BC000FFF76AFA1920FFF791FA09B030BDC04645
:102BD0000030014000100240DC0000201C000240D8
:102BE00030000240200100200B480C4B10B5036060
:102BF0000B4B0C224360002342618360C36003617E
:102C00008361C36103624362FFF760FE002801D065
:102C1000FDF7C4FE10BDC046500200200038014040
:102C200020A1070070B5050088B01422002103A878
:102C300000F03DFB314B2A689A425DD18020304B39
:102C4000C00199690143996180219A698902024012
:102C50000192019A5A6990200A435A615B69C00542
:102C60000B400293029B0C2303930A3B0493013312
:102C7000069303A9023B0793FFF758F8214C224B18
:102C800080222360002320006360A360E260236150
:102C90006361A361E361FFF705F9002801D0FDF747
:102CA0007DFE8023194EDB00326813433360184BDE
:102CB0002C676562174C8022236010236360002319
:102CC0002000A360E26023616361A361E361FFF719
:102CD000E9F8002801D0FDF761FE802332689B00EF
:102CE0001343002233601B201100EC666562FFF77E
:102CF000D3F91B20FFF7FAF908B070BD0038014086
:102D000000100240C80100205800024000000140AD
:102D1000440002400C0200200A0010B501000348E4
:102D2000FEF79EF9431E9841C0B210BD6401002019
:102D30000A0010B501000348FEF71AF8431E984137
:102D4000C0B210BD64010020130010B50A000100DC
:102D50000348FEF799F8431E9841C0B210BDC04623
:102D600064010020010010B501280AD002280BD010
:102D7000002805D1020002319020C005FFF78CF831
:102D800010BD00221021F7E700220148F6E7C046F7
:102D90000004004810B59024E4052000012202211F
:102DA000FFF77AF8200001221021FFF775F80122C1
:102DB00002210248FFF770F810BDC0460004004829
:102DC000F7B51C00050016000F00FFF7CBFF8021B0
:102DD0000C4839430C4F0122397001700B49FFF741
:102DE000B3FF3100A2B201903800FFF7ADFF04003D
:102DF0002800FFF7CFFF019B2343D8B2431E984121
:102E0000C0B2FEBDD5020020D6020020D4020020B0
:102E100010B50123FFF7D4FF10BD0000F7B5160071
:102E200004000F00FFF79EFF7F210D4D0F402F7014
:102E30000C4F012239002800FFF786FF39000122DC
:102E4000019028002E70FFF77FFF05002000FFF79C
:102E5000A1FF019B2B43D8B2431E9841C0B2FEBDD7
:102E6000D5020020D402002010B50400FDF74CF973
:102E7000210082B20348FFF78DF90120FEF7A4FE7E
:102E800010BDC046500200200FB4002130B58BB0F9
:102E90000EAC20CC1A2203A8029100F008FA2200FE
:102EA000290002A8019400F021FA02A8FFF7DCFF34
:102EB0000BB030BC08BC04B01847000013B5074B7A
:102EC00001AC1B7800202370FFF74CFF012120008C
:102ED000FFF72EFF0020FFF75DFF13BDBD3C00088C
:102EE00037B56B4618700020FFF73CFF012168469C
:102EF000FFF71EFF01AD0120FEF766FE022128004C
:102F0000FFF70AFF04000020FFF744FF0120FEF74F
:102F10005BFE002C03D1288840BA80B23EBD014838
:102F2000FCE7C046FFFF000010B5040086B0A020FB
:102F3000FFF7D6FF6080A220FFF7D2FFA080A42079
:102F4000FFF7CEFFE080A620FFF7CAFF2081A82070
:102F5000FFF7C6FF6081AA20FFF7C2FFA081AC2067
:102F6000FFF7BEFFE081AE20FFF7BAFF208204909A
:102F7000E089E3880390A089A28802906089618833
:102F80000190208900900248FFF77EFF06B010BD37
:102F9000BF3C000810B504000020FFF7FBFE200036
:102FA000FFF78CFF3220FEF70FFE2000FFF7BCFF7B
:102FB0006088431E9841C0B210BD000013B50220C6
:102FC000FFF7E8FE01AC3220FEF7FEFD22000A21E9
:102FD0000220FFF71DFF6B460B215A1D0220FFF751
:102FE00017FF6B460C219A1D0220FFF711FFA378F3
:102FF000084862782178FFF747FF23780120482BA3
:1030000007D16378342B04D1A0783338431E98411C
:10301000C0B216BDD93C00080A0010B508290AD074
:1030200010290AD000290AD1074B43601B21012037
:10303000FFF7F4FE10BD054BF7E7054BF5E7054B31
:1030400018224360F2E7C046F501FA3BF5017A3CED
:10305000F501FA3C90C1793D0A0010B5082906D067
:10306000182910D0002905D1084B436006E0E4235D
:103070009B05FAE7E62310229B0543601C210120F3
:10308000FFF7CCFE10BDE823F2E7C04629488038A0
:1030900073B504002248FFF7F7FE0A2000F0ACF8F1
:1030A00080226B210120FFF7B9FE051E01D001200F
:1030B00076BD322000F0A0F801226B211000FFF74E
:1030C000ADFE322000F098F86B46DE1D752132000F
:1030D0000120FFF79DFE3178AF29E8D11148FFF7B5
:1030E000D3FE2A0019210120FFF798FE04221A219D
:1030F0000120FFF793FE04221D210120FFF78EFE21
:1031000010212000FFF7A8FF18212000FFF784FFFF
:103110000400631E9C41642000F06EF8E0B2C7E733
:10312000EF3C00080B3D000813B5062304006A4677
:103130003B210120FFF744FE002812D16B461A788C
:103140005B7812029B1823816B469A78DB78120217
:103150009B1863816B461A795B7912029B18A381D5
:1031600016BD0120FCE713B5062304006A4643217F
:103170000120FFF725FE002812D16B461A785B78F4
:1031800012029B18E3816B469A78DB7812029B1837
:1031900023826B461A795B7912029B18638216BDF3
:1031A0000120FCE773B5022306004121012001AA9A
:1031B000FFF706FE051E16D16B466A461B79547949
:1031C0001B02E418A4B221000848FFF75DFE2000AE
:1031D000FDF702FB0649FDF7E7F90649FDF746F85A
:1031E000F062280076BD0125FBE7C0461C3D0008C3
:1031F0006666A3430000C84110B5FEF7E5FC10BDAC
:103200000D4885460D480E490E4A002302E0D45869
:10321000C4500433C4188C42F9D30B4A0B4C00231E
:1032200001E013600432A242FBD3FFF781FB00F000
:1032300011F8FDF76DFBFEE70010002000000020F4
:1032400070000020683D000870000020F802002097
:10325000FEE7000070B500260C4D0D4C641BA41059
:10326000A64209D1002600F09BFC0A4D0A4C641BC3
:10327000A410A64205D170BDB300EB5898470136A3
:10328000EEE7B300EB5898470136F2E7603D0008DF
:10329000603D0008603D0008643D0008002310B553
:1032A0009A4200D110BDCC5CC4540133F8E703004E
:1032B0008218934200D1704719700133F9E700007A
:1032C00000B59BB000910491064905910291064911
:1032D0000391694600F078F80023009A13701BB040
:1032E00000BDC046FFFFFF7F0802FFFF10B51300BF
:1032F0000A00010002480068FFF7E2FF10BDC04667
:103300000C000020F0B58E6885B007000C00039219
:1033100001939E423CD890238A89DB001A4234D024
:103320000969236860695B1A029303234343DD0F35
:10333000ED18019B029801331B186D10AB4200D9A8
:103340001D00530532D52900380000F049FB061E48
:1033500009D10C233B6040230120A2894042134342
:10336000A38105B0F0BD029A2169FFF797FFA389F9
:10337000144A1A4080231343A381029B2661F61846
:1033800026606561019EED1AA560019B9E4200D9F1
:10339000019E32000399206800F0A3FAA368002080
:1033A0009B1BA36023689E192660DAE72A00380079
:1033B00000F08CFB061EE0D13800216900F0A4FA71
:1033C000C7E7C0467FFBFFFFF0B5A1B003901D002B
:1033D0008B890F0016001B0611D50B69002B0ED12F
:1033E000402100F0FDFA38603861002805D10C2337
:1033F000039A0138136021B0F0BD40237B610023A4
:1034000008AC6361203363761033A37607953500EB
:103410002B78002B01D0252B47D1AB1B0593B54250
:103420000CD0320039000398FFF76CFF431C00D129
:10343000AEE06269059B9446634463612B78002B80
:1034400000D1A5E0012200235242626004A9543257
:1034500052186E1C2360E360A3601370A3650522FD
:103460003178544800F032FA751C00281FD12268C8
:10347000D30604D5532304A95B1820211970130720
:1034800004D5532304A95B182B21197033782A2BF8
:1034900016D0350000210A20E3682A786E1C303AE5
:1034A000092A4ED9002911D117E00135B0E7414B67
:1034B0002268C01A0123834013432E002360CEE705
:1034C000079B191D1B680791002B01DB0B9304E080
:1034D0005B42E3600223134323602B782E2B0AD137
:1034E0006B782A2B35D1079B02351A1D1B68079272
:1034F000002B2BDB0993304E03223000297800F09B
:10350000E5F9002806D04023801B8340226801355E
:10351000134323602978062228486E1C217600F088
:10352000D5F900283CD0264B002B25D10722079B3C
:1035300007339343083307936369049A9B186361C5
:1035400065E74343350001219B18A6E701235B4251
:10355000D0E700230A201A000135636029786E1C29
:103560003039092903D9002BC5D00992C3E742435A
:10357000350001235218F1E707AB00933A00210010
:10358000104B039800E000BF0490049B0133D3D19B
:10359000BB890D985B0600D42DE7012040422AE745
:1035A00007AB00933A002100064B039800F07CF82B
:1035B000EAE7C0462A3D0008303D0008343D0008D7
:1035C0000000000005330008F7B5150001938A6874
:1035D0000B690C000090934200DA130022002B606C
:1035E00043321278002A01D001332B6023689B06F6
:1035F00002D52B6802332B602268062317001F4078
:103600001A4227D0230043331B785A1E9341226865
:10361000920630D4220001990098089E4332B047A8
:10362000431C25D0062320682A68E1680025034052
:10363000042B03D18D1AEB43DB171D40A3682269CD
:10364000934201DD9B1AED180027BD4220D10020D6
:1036500010E00137E3682A689B1ABB42D2DD2200E2
:10366000012301990098089E1932B047431CF0D1FC
:1036700001204042FEBD3020E11843310870210096
:103680005A1C45310978A218433202331170C1E740
:103690002200012301990098089E1A32B047431C6A
:1036A000E6D00137D1E70000F0B58BB006920A00F2
:1036B00043320793059004920A7E0C00109B782AEF
:1036C00007D8622A09D8002A00D1C1E0582A00D1BF
:1036D0008CE026004236327022E010006338152854
:1036E000F7D8FCF72DFD16001F00F6FFF6FFF6FFDA
:1036F000F6FF1F00F6FFF6FFF6FFF6FFA800360004
:103700009A00F6FFF6FFB900F6FF3600F6FFF6FF67
:103710009E0026001A684236111D19601368337026
:103720000123A7E0086819680A1D05060BD50D6876
:103730001A60002D03DA2D23049A6D421370614B39
:103740000A2703931BE00D681A604106F1D52DB2DC
:10375000EFE70D681968081D18602E0601D50D6881
:1037600003E06D06FBD50D68ADB2564B08270393F9
:103770006F2A00D002372300002243331A70636897
:10378000A360002B03DB0422216891432160002DFC
:1037900002D1049E002B0CD0049E28003900FCF7B7
:1037A0005FFD039B013E5B5C33702B0005009F4275
:1037B000F3D9082F09D12368DB0706D5636822698E
:1037C000934202DC3023013E3370049B9B1B236138
:1037D000079B210000930598069B09AAFFF7F4FEBA
:1037E000431C4CD1012040420BB0F0BD45310A7062
:1037F000344A03921A68216820CA1A60080616D54E
:10380000CB0702D52023194321601027002DB2D108
:10381000202322689A432260ADE7202209680A43E8
:1038200022602200782145321170274AE1E74806DC
:10383000E6D5ADB2E4E71A680D68101D4969186055
:1038400013682E0601D5196002E06D06FBD51980BC
:103850000023049E2361BBE71A68111D19601668D6
:1038600000213000626800F031F8002801D0801B90
:103870006060636823610023049A1370A8E72369DA
:10388000320006990598079DA847431CAAD02368D3
:103890009B0715D4099BE0689842A5DA1800A3E7B6
:1038A0002200012306990598079E1932B047431C50
:1038B00098D00135E368099A9B1AAB42F0DCE9E73E
:1038C0000025F7E73B3D00084C3D0008C9B28218CF
:1038D000904201D10020704703788B42FBD0013029
:1038E000F6E710B5884202D98B18984203D300231B
:1038F00007E08B5C8354013AFBD210BDCC5CC4540E
:1039000001339A42FAD1F8E770B50500002910D0CA
:103910000C1F2368002B00DAE418280000F018F9C7
:103920001D4A1368002B05D163601460280000F065
:1039300017F970BDA34208D9216860188342F3D1FA
:1039400018685B6841182160EEE71A005B68002B7D
:1039500001D0A342F9D911685018A0420BD12068B8
:103960000918501811608342E0D118685B6841184B
:1039700011605360DAE7A04202D90C232B60D5E72F
:1039800021686018834203D118685B684118216080
:1039900063605460CAE7C046E402002070B50F4E71
:1039A0000D0031680400002902D100F0BFF830603A
:1039B0002900200000F0BAF8431C0AD00323C51CDC
:1039C0009D43A84207D0291A200000F0AFF8431CFD
:1039D00001D101256D42280070BDC046E8020020DB
:1039E000F7B50322CB1C9343083306001F000C2BB2
:1039F00032D20C27B94231D8300000F0A9F8324D4C
:103A00002B681C00002C2ED139003000FFF7C6FFB8
:103A10000400431C1ED12C682500002D4AD12368C8
:103A20002900E3183000019300F080F8019B8342E5
:103A300043D123680337FF1A03239F4308370C2F12
:103A400000D20C2739003000FFF7A8FF431C34D008
:103A50002368DF19276013E0002BCBDA0C23002545
:103A600033602800FEBD2268D11B20D40B2917D952
:103A7000E2192760A34211D12A6063681160536084
:103A80003000250000F06CF807220B35231D95430C
:103A9000EA1A9D42E5D05B1BA350E2E75A60ECE7CF
:103AA0006268A34201D12A60EAE75A60E8E723008E
:103AB0006468A7E72C006D68AFE70C233000336023
:103AC00000F04EF8CDE7C046E4020020F7B507004D
:103AD0000E001400002905D11100FFF781FF050039
:103AE0002800FEBD002A03D1FFF70EFF2500F7E7EF
:103AF00000F03EF80190844203D835004308A34209
:103B0000EED321003800FFF76BFF051EE8D0019BC4
:103B100022009C4200D91A0031002800FFF7BEFBAA
:103B200031003800FFF7F0FEDAE70000002370B53F
:103B3000064D040008002B6000F024F8431C03D15C
:103B40002B68002B00D0236070BDC046EC02002023
:103B500010B5024800F014F810BDC046F002002075
:103B600010B5024800F00DF810BDC046F00200206C
:103B70000B1F1B68181F002B01DA0B58C018704769
:103B800070477047044A03001068002802D0C31829
:103B9000136070470148FAE7F4020020F8020020A1
:103BA000F8B5C046F8BC08BC9E467047F8B5C0469C
:083BB000F8BC08BC9E467047FA
:103BB8007C07000808070008640600081C060008BF
:103BC8006406000844070008640600081C0600088C
:103BD8000807000808070008440700081C06000832
:103BE80022060008220600082206000852070008DC
:103BF80008070008080700086406000818060008F7
:103C0800640600084407000864060008180600084F
:103C180008070008080700084407000818060008F5
:103C28002206000822060008220600084E0700089F
:103C380053656E736F727320696E697469616C2065
:103C48006661696C6564210D0A0053656E736F7255
:103C58007320696E697469616C2073756363656547
:103C6800646564210D0A006779726F202564202538
:103C780064202564200D0A000203040506070809CC
:103C88000A0B0C0D0E0F10100001020304050607A5
:103C980008090A0B0C0D0E0F1000040802000000A2
:103CA80000000000000102030406070809000000E4
:103CB80000010203041E0025642C25642C25642CB5
:103CC80025642C25642C25642C25642C25640D0A78
:103CD80000484D43353938332049443D257820255F
:103CE800782025780D0A0049434D3230363032208D
:103CF800696E697469616C20737461727465642E8D
:103D08000D0A0049434D32303630322049443D25B2
:103D1800780D0A0074656D70206164633A25640A41
:103D28000D00232D302B2000686C4C00656667451C
:103D3800464700303132333435363738394142431B
:103D480044454600303132333435363738396162CC
:083D58006364656600000000D1
:043D6000E90000086E
:043D6400C100000892
:103D6800010000000400000000127A00100000208A
:103D7800000000000000000000000000000000003B
:103D8800000000000000000000000000000000002B
:103D9800000000000000000000000000000000001B
:103DA800000000000000000000000000000000000B
:103DB80000000000000000000000000000000000FB
:103DC80000000000000000000000000000000000EB
:0400000508003201BC
:00000001FF
